{
    "abi": [
        {
            "type": "constructor",
            "inputs": [],
            "stateMutability": "nonpayable"
        },
        {
            "type": "fallback",
            "stateMutability": "payable"
        },
        {
            "type": "receive",
            "stateMutability": "payable"
        },
        {
            "type": "function",
            "name": "PLATFORM_FEE_PERCENTAGE",
            "inputs": [],
            "outputs": [
                {
                    "name": "",
                    "type": "uint256",
                    "internalType": "uint256"
                }
            ],
            "stateMutability": "view"
        },
        {
            "type": "function",
            "name": "bounties",
            "inputs": [
                {
                    "name": "",
                    "type": "uint256",
                    "internalType": "uint256"
                }
            ],
            "outputs": [
                {
                    "name": "id",
                    "type": "uint256",
                    "internalType": "uint256"
                },
                {
                    "name": "isActive",
                    "type": "bool",
                    "internalType": "bool"
                },
                {
                    "name": "creator",
                    "type": "address",
                    "internalType": "address"
                },
                {
                    "name": "cid",
                    "type": "string",
                    "internalType": "string"
                },
                {
                    "name": "deadline",
                    "type": "uint256",
                    "internalType": "uint256"
                },
                {
                    "name": "resultDeadline",
                    "type": "uint256",
                    "internalType": "uint256"
                },
                {
                    "name": "minParticipants",
                    "type": "uint16",
                    "internalType": "uint16"
                },
                {
                    "name": "totalWinners",
                    "type": "uint16",
                    "internalType": "uint16"
                },
                {
                    "name": "bountyType",
                    "type": "uint8",
                    "internalType": "enum BountyType"
                }
            ],
            "stateMutability": "view"
        },
        {
            "type": "function",
            "name": "bountyIdCounter",
            "inputs": [],
            "outputs": [
                {
                    "name": "",
                    "type": "uint256",
                    "internalType": "uint256"
                }
            ],
            "stateMutability": "view"
        },
        {
            "type": "function",
            "name": "bountySubmissions",
            "inputs": [
                {
                    "name": "",
                    "type": "uint256",
                    "internalType": "uint256"
                },
                {
                    "name": "",
                    "type": "uint256",
                    "internalType": "uint256"
                }
            ],
            "outputs": [
                {
                    "name": "cid",
                    "type": "string",
                    "internalType": "string"
                },
                {
                    "name": "participant",
                    "type": "address",
                    "internalType": "address"
                },
                {
                    "name": "timestamp",
                    "type": "uint256",
                    "internalType": "uint256"
                }
            ],
            "stateMutability": "view"
        },
        {
            "type": "function",
            "name": "calculatePrizesAndFee",
            "inputs": [
                {
                    "name": "_prizes",
                    "type": "uint256[]",
                    "internalType": "uint256[]"
                }
            ],
            "outputs": [
                {
                    "name": "totalPrizeAmount",
                    "type": "uint256",
                    "internalType": "uint256"
                },
                {
                    "name": "platformFee",
                    "type": "uint256",
                    "internalType": "uint256"
                }
            ],
            "stateMutability": "pure"
        },
        {
            "type": "function",
            "name": "cancelBounty",
            "inputs": [
                {
                    "name": "_bountyId",
                    "type": "uint256",
                    "internalType": "uint256"
                }
            ],
            "outputs": [],
            "stateMutability": "nonpayable"
        },
        {
            "type": "function",
            "name": "createBounty",
            "inputs": [
                {
                    "name": "_cid",
                    "type": "string",
                    "internalType": "string"
                },
                {
                    "name": "_deadline",
                    "type": "uint256",
                    "internalType": "uint256"
                },
                {
                    "name": "_resultDeadline",
                    "type": "uint256",
                    "internalType": "uint256"
                },
                {
                    "name": "_minParticipants",
                    "type": "uint16",
                    "internalType": "uint16"
                },
                {
                    "name": "_totalWinners",
                    "type": "uint16",
                    "internalType": "uint16"
                },
                {
                    "name": "_prizes",
                    "type": "uint256[]",
                    "internalType": "uint256[]"
                },
                {
                    "name": "_bountyType",
                    "type": "uint8",
                    "internalType": "enum BountyType"
                }
            ],
            "outputs": [
                {
                    "name": "",
                    "type": "uint256",
                    "internalType": "uint256"
                }
            ],
            "stateMutability": "payable"
        },
        {
            "type": "function",
            "name": "createSubmission",
            "inputs": [
                {
                    "name": "_bountyId",
                    "type": "uint256",
                    "internalType": "uint256"
                },
                {
                    "name": "_cid",
                    "type": "string",
                    "internalType": "string"
                }
            ],
            "outputs": [],
            "stateMutability": "nonpayable"
        },
        {
            "type": "function",
            "name": "editBounty",
            "inputs": [
                {
                    "name": "_bountyId",
                    "type": "uint256",
                    "internalType": "uint256"
                },
                {
                    "name": "_cid",
                    "type": "string",
                    "internalType": "string"
                },
                {
                    "name": "_deadline",
                    "type": "uint256",
                    "internalType": "uint256"
                },
                {
                    "name": "_resultDeadline",
                    "type": "uint256",
                    "internalType": "uint256"
                },
                {
                    "name": "_minParticipants",
                    "type": "uint16",
                    "internalType": "uint16"
                },
                {
                    "name": "_totalWinners",
                    "type": "uint16",
                    "internalType": "uint16"
                },
                {
                    "name": "_prizes",
                    "type": "uint256[]",
                    "internalType": "uint256[]"
                }
            ],
            "outputs": [],
            "stateMutability": "payable"
        },
        {
            "type": "function",
            "name": "editSubmision",
            "inputs": [
                {
                    "name": "_bountyId",
                    "type": "uint256",
                    "internalType": "uint256"
                },
                {
                    "name": "_cid",
                    "type": "string",
                    "internalType": "string"
                },
                {
                    "name": "_submissionIndex",
                    "type": "uint256",
                    "internalType": "uint256"
                }
            ],
            "outputs": [],
            "stateMutability": "nonpayable"
        },
        {
            "type": "function",
            "name": "feeCollected",
            "inputs": [],
            "outputs": [
                {
                    "name": "",
                    "type": "uint256",
                    "internalType": "uint256"
                }
            ],
            "stateMutability": "view"
        },
        {
            "type": "function",
            "name": "getBounty",
            "inputs": [
                {
                    "name": "_bountyId",
                    "type": "uint256",
                    "internalType": "uint256"
                }
            ],
            "outputs": [
                {
                    "name": "",
                    "type": "tuple",
                    "internalType": "struct Bounty",
                    "components": [
                        {
                            "name": "id",
                            "type": "uint256",
                            "internalType": "uint256"
                        },
                        {
                            "name": "isActive",
                            "type": "bool",
                            "internalType": "bool"
                        },
                        {
                            "name": "creator",
                            "type": "address",
                            "internalType": "address"
                        },
                        {
                            "name": "cid",
                            "type": "string",
                            "internalType": "string"
                        },
                        {
                            "name": "deadline",
                            "type": "uint256",
                            "internalType": "uint256"
                        },
                        {
                            "name": "resultDeadline",
                            "type": "uint256",
                            "internalType": "uint256"
                        },
                        {
                            "name": "minParticipants",
                            "type": "uint16",
                            "internalType": "uint16"
                        },
                        {
                            "name": "totalWinners",
                            "type": "uint16",
                            "internalType": "uint16"
                        },
                        {
                            "name": "prizes",
                            "type": "uint256[]",
                            "internalType": "uint256[]"
                        },
                        {
                            "name": "selectedWinners",
                            "type": "address[]",
                            "internalType": "address[]"
                        },
                        {
                            "name": "bountyType",
                            "type": "uint8",
                            "internalType": "enum BountyType"
                        }
                    ]
                }
            ],
            "stateMutability": "view"
        },
        {
            "type": "function",
            "name": "getBountySubmissions",
            "inputs": [
                {
                    "name": "_bountyId",
                    "type": "uint256",
                    "internalType": "uint256"
                }
            ],
            "outputs": [
                {
                    "name": "",
                    "type": "tuple[]",
                    "internalType": "struct Submission[]",
                    "components": [
                        {
                            "name": "cid",
                            "type": "string",
                            "internalType": "string"
                        },
                        {
                            "name": "participant",
                            "type": "address",
                            "internalType": "address"
                        },
                        {
                            "name": "timestamp",
                            "type": "uint256",
                            "internalType": "uint256"
                        }
                    ]
                }
            ],
            "stateMutability": "view"
        },
        {
            "type": "function",
            "name": "getUserBounties",
            "inputs": [
                {
                    "name": "_creator",
                    "type": "address",
                    "internalType": "address"
                }
            ],
            "outputs": [
                {
                    "name": "",
                    "type": "uint256[]",
                    "internalType": "uint256[]"
                }
            ],
            "stateMutability": "view"
        },
        {
            "type": "function",
            "name": "isParticipant",
            "inputs": [
                {
                    "name": "",
                    "type": "uint256",
                    "internalType": "uint256"
                },
                {
                    "name": "",
                    "type": "address",
                    "internalType": "address"
                }
            ],
            "outputs": [
                {
                    "name": "",
                    "type": "bool",
                    "internalType": "bool"
                }
            ],
            "stateMutability": "view"
        },
        {
            "type": "function",
            "name": "isParticipantOfBounty",
            "inputs": [
                {
                    "name": "_bountyId",
                    "type": "uint256",
                    "internalType": "uint256"
                },
                {
                    "name": "_participant",
                    "type": "address",
                    "internalType": "address"
                }
            ],
            "outputs": [
                {
                    "name": "",
                    "type": "bool",
                    "internalType": "bool"
                }
            ],
            "stateMutability": "view"
        },
        {
            "type": "function",
            "name": "owner",
            "inputs": [],
            "outputs": [
                {
                    "name": "",
                    "type": "address",
                    "internalType": "address"
                }
            ],
            "stateMutability": "view"
        },
        {
            "type": "function",
            "name": "renounceOwnership",
            "inputs": [],
            "outputs": [],
            "stateMutability": "nonpayable"
        },
        {
            "type": "function",
            "name": "selectWinners",
            "inputs": [
                {
                    "name": "_bountyId",
                    "type": "uint256",
                    "internalType": "uint256"
                },
                {
                    "name": "_winners",
                    "type": "address[]",
                    "internalType": "address[]"
                }
            ],
            "outputs": [],
            "stateMutability": "nonpayable"
        },
        {
            "type": "function",
            "name": "transferOwnership",
            "inputs": [
                {
                    "name": "newOwner",
                    "type": "address",
                    "internalType": "address"
                }
            ],
            "outputs": [],
            "stateMutability": "nonpayable"
        },
        {
            "type": "function",
            "name": "userBounties",
            "inputs": [
                {
                    "name": "",
                    "type": "address",
                    "internalType": "address"
                },
                {
                    "name": "",
                    "type": "uint256",
                    "internalType": "uint256"
                }
            ],
            "outputs": [
                {
                    "name": "",
                    "type": "uint256",
                    "internalType": "uint256"
                }
            ],
            "stateMutability": "view"
        },
        {
            "type": "function",
            "name": "withdraw",
            "inputs": [
                {
                    "name": "_amount",
                    "type": "uint256",
                    "internalType": "uint256"
                }
            ],
            "outputs": [],
            "stateMutability": "nonpayable"
        },
        {
            "type": "event",
            "name": "BountyCancelled",
            "inputs": [
                {
                    "name": "id",
                    "type": "uint256",
                    "indexed": true,
                    "internalType": "uint256"
                }
            ],
            "anonymous": false
        },
        {
            "type": "event",
            "name": "BountyCreated",
            "inputs": [
                {
                    "name": "id",
                    "type": "uint256",
                    "indexed": true,
                    "internalType": "uint256"
                },
                {
                    "name": "creator",
                    "type": "address",
                    "indexed": true,
                    "internalType": "address"
                },
                {
                    "name": "cid",
                    "type": "string",
                    "indexed": false,
                    "internalType": "string"
                },
                {
                    "name": "deadline",
                    "type": "uint256",
                    "indexed": false,
                    "internalType": "uint256"
                },
                {
                    "name": "resultDeadline",
                    "type": "uint256",
                    "indexed": false,
                    "internalType": "uint256"
                },
                {
                    "name": "minParticipants",
                    "type": "uint16",
                    "indexed": false,
                    "internalType": "uint16"
                },
                {
                    "name": "totalWinners",
                    "type": "uint16",
                    "indexed": false,
                    "internalType": "uint16"
                },
                {
                    "name": "prizes",
                    "type": "uint256[]",
                    "indexed": false,
                    "internalType": "uint256[]"
                },
                {
                    "name": "bountyType",
                    "type": "uint8",
                    "indexed": false,
                    "internalType": "enum BountyType"
                }
            ],
            "anonymous": false
        },
        {
            "type": "event",
            "name": "BountyUpdated",
            "inputs": [
                {
                    "name": "id",
                    "type": "uint256",
                    "indexed": true,
                    "internalType": "uint256"
                },
                {
                    "name": "creator",
                    "type": "address",
                    "indexed": true,
                    "internalType": "address"
                },
                {
                    "name": "cid",
                    "type": "string",
                    "indexed": false,
                    "internalType": "string"
                },
                {
                    "name": "deadline",
                    "type": "uint256",
                    "indexed": false,
                    "internalType": "uint256"
                },
                {
                    "name": "resultDeadline",
                    "type": "uint256",
                    "indexed": false,
                    "internalType": "uint256"
                },
                {
                    "name": "minParticipants",
                    "type": "uint16",
                    "indexed": false,
                    "internalType": "uint16"
                },
                {
                    "name": "totalWinners",
                    "type": "uint16",
                    "indexed": false,
                    "internalType": "uint16"
                },
                {
                    "name": "prizes",
                    "type": "uint256[]",
                    "indexed": false,
                    "internalType": "uint256[]"
                },
                {
                    "name": "bountyType",
                    "type": "uint8",
                    "indexed": false,
                    "internalType": "enum BountyType"
                }
            ],
            "anonymous": false
        },
        {
            "type": "event",
            "name": "OwnershipTransferred",
            "inputs": [
                {
                    "name": "previousOwner",
                    "type": "address",
                    "indexed": true,
                    "internalType": "address"
                },
                {
                    "name": "newOwner",
                    "type": "address",
                    "indexed": true,
                    "internalType": "address"
                }
            ],
            "anonymous": false
        },
        {
            "type": "event",
            "name": "SubmissionCreated",
            "inputs": [
                {
                    "name": "bountyId",
                    "type": "uint256",
                    "indexed": true,
                    "internalType": "uint256"
                },
                {
                    "name": "cid",
                    "type": "string",
                    "indexed": false,
                    "internalType": "string"
                },
                {
                    "name": "participant",
                    "type": "address",
                    "indexed": false,
                    "internalType": "address"
                },
                {
                    "name": "timestamp",
                    "type": "uint256",
                    "indexed": false,
                    "internalType": "uint256"
                }
            ],
            "anonymous": false
        },
        {
            "type": "event",
            "name": "SubmissionUdpated",
            "inputs": [
                {
                    "name": "bountyId",
                    "type": "uint256",
                    "indexed": true,
                    "internalType": "uint256"
                },
                {
                    "name": "cid",
                    "type": "string",
                    "indexed": false,
                    "internalType": "string"
                },
                {
                    "name": "participant",
                    "type": "address",
                    "indexed": false,
                    "internalType": "address"
                },
                {
                    "name": "timestamp",
                    "type": "uint256",
                    "indexed": false,
                    "internalType": "uint256"
                }
            ],
            "anonymous": false
        },
        {
            "type": "event",
            "name": "WinnersSelected",
            "inputs": [
                {
                    "name": "bountyId",
                    "type": "uint256",
                    "indexed": true,
                    "internalType": "uint256"
                },
                {
                    "name": "winners",
                    "type": "address[]",
                    "indexed": false,
                    "internalType": "address[]"
                }
            ],
            "anonymous": false
        },
        {
            "type": "error",
            "name": "BountyBoard__InsufficientFunds",
            "inputs": [
                {
                    "name": "amountUser",
                    "type": "uint256",
                    "internalType": "uint256"
                },
                {
                    "name": "amountRequired",
                    "type": "uint256",
                    "internalType": "uint256"
                }
            ]
        },
        {
            "type": "error",
            "name": "OwnableInvalidOwner",
            "inputs": [
                {
                    "name": "owner",
                    "type": "address",
                    "internalType": "address"
                }
            ]
        },
        {
            "type": "error",
            "name": "OwnableUnauthorizedAccount",
            "inputs": [
                {
                    "name": "account",
                    "type": "address",
                    "internalType": "address"
                }
            ]
        },
        {
            "type": "error",
            "name": "ReentrancyGuardReentrantCall",
            "inputs": []
        }
    ],
    "bytecode": {
        "object": "0x6080604052348015600e575f5ffd5b503380603357604051631e4fbdf760e01b81525f600482015260240160405180910390fd5b603a816043565b50600180556092565b5f80546001600160a01b038381166001600160a01b0319831681178455604051919092169283917f8be0079c531659141344cd1fd0a4f28419497f9722a3daafe3b4186f6b6457e09190a35050565b612bae8061009f5f395ff3fe60806040526004361061012b575f3560e01c8063715018a6116100a4578063a5e99c4e1161006b578063a5e99c4e1461035d578063ccf7c20a1461037c578063dc2f87441461039b578063e5e5dff1146103cf578063ee8c4bbf146103ee578063f2fde38b1461041a57005b8063715018a61461028a578063758d9b891461029e5780637dda8f80146102d75780638da5cb5b1461030b57806392af09621461033157005b8063429e2398116100f3578063429e2398146101c4578063439460c5146101f25780635af38890146102055780636591a18514610234578063666980b5146102605780636ca7f95c1461027557005b8063155482321461012d5780632b9234b9146101545780632e1a7d4d146101735780632f8feaf214610192578063342ec937146101b1575b005b348015610138575f5ffd5b50610141600581565b6040519081526020015b60405180910390f35b34801561015f575f5ffd5b5061014161016e366004611fe5565b610439565b34801561017e575f5ffd5b5061012b61018d36600461200d565b610464565b34801561019d575f5ffd5b5061012b6101ac3660046120d3565b610516565b61012b6101bf3660046121af565b6106ac565b3480156101cf575f5ffd5b506101e36101de36600461224d565b61083d565b60405161014b9392919061229b565b6101416102003660046122c8565b61090d565b348015610210575f5ffd5b5061022461021f366004612374565b610d49565b604051901515815260200161014b565b34801561023f575f5ffd5b5061025361024e36600461239e565b610d75565b60405161014b91906123f8565b34801561026b575f5ffd5b5061014160025481565b348015610280575f5ffd5b5061014160075481565b348015610295575f5ffd5b5061012b610dde565b3480156102a9575f5ffd5b506102246102b8366004612374565b600660209081525f928352604080842090915290825290205460ff1681565b3480156102e2575f5ffd5b506102f66102f136600461240a565b610df1565b6040805192835260208301919091520161014b565b348015610316575f5ffd5b505f546040516001600160a01b03909116815260200161014b565b34801561033c575f5ffd5b5061035061034b36600461200d565b610e3e565b60405161014b9190612443565b348015610368575f5ffd5b5061012b6103773660046124cf565b610f5d565b348015610387575f5ffd5b5061012b610396366004612512565b6111cc565b3480156103a6575f5ffd5b506103ba6103b536600461200d565b611428565b60405161014b999897969594939291906125be565b3480156103da575f5ffd5b5061012b6103e936600461200d565b611511565b3480156103f9575f5ffd5b5061040d61040836600461200d565b611733565b60405161014b9190612667565b348015610425575f5ffd5b5061012b61043436600461239e565b611992565b6004602052815f5260405f208181548110610452575f80fd5b905f5260205f20015f91509150505481565b61046c6119cf565b6007548111156104975760405162461bcd60e51b815260040161048e90612750565b60405180910390fd5b6040515f90339083908381818185875af1925050503d805f81146104d6576040519150601f19603f3d011682016040523d82523d5f602084013e6104db565b606091505b50509050806104fc5760405162461bcd60e51b815260040161048e90612787565b8160075f82825461050d91906127d2565b90915550505050565b5f838152600360205260409020600181015460ff166105475760405162461bcd60e51b815260040161048e906127e5565b336105945760405162461bcd60e51b815260206004820181905260248201527f426f756e7479426f6172643a20494e56414c49445f5041525449434950414e54604482015260640161048e565b600181015461010090046001600160a01b031633036105c55760405162461bcd60e51b815260040161048e9061281c565b5f8481526005602052604081208054849081106105e4576105e461285e565b5f91825260209091206001600390920201908101549091506001600160a01b0316331461065d5760405162461bcd60e51b815260206004820152602160248201527f426f756e7479426f6172643a204e4f545f5355424d495353494f4e5f4f574e456044820152602960f91b606482015260840161048e565b8061066885826128f3565b50847fe02fe9d7521de5f0f16e1f80c259fc29b05821d29519d689b87239a0452fa32e85334260405161069d9392919061229b565b60405180910390a25050505050565b6106b46119fb565b5f878152600360205260409020600181015460ff166106e55760405162461bcd60e51b815260040161048e906127e5565b600181015461010090046001600160a01b031633146107165760405162461bcd60e51b815260040161048e906129ad565b5f600882015460ff1660018111156107305761073061258a565b1461077d5760405162461bcd60e51b815260206004820181905260248201527f426f756e7479426f6172643a204e4f4e5f4544495441424c455f424f554e5459604482015260640161048e565b6002810161078b88826128f3565b50600381018690556004810185905560058101805461ffff858116620100000263ffffffff199092169087161717905581516107d09060068301906020850190611ec9565b506107da82611a25565b805460088201546040513392917f8bb4600c44290d6f2ffc2b5dcda5c870d35ec8d7176bff35c6353d717eecbf5991610822918c918c918c918c918c918c9160ff16906129e4565b60405180910390a35061083460018055565b50505050505050565b6005602052815f5260405f208181548110610856575f80fd5b905f5260205f2090600302015f9150915050805f01805461087690612872565b80601f01602080910402602001604051908101604052809291908181526020018280546108a290612872565b80156108ed5780601f106108c4576101008083540402835291602001916108ed565b820191905f5260205f20905b8154815290600101906020018083116108d057829003601f168201915b50505050600183015460029093015491926001600160a01b031691905083565b5f6109166119fb565b4287116109655760405162461bcd60e51b815260206004820152601a60248201527f426f756e7479426f6172643a20504153545f444541444c494e45000000000000604482015260640161048e565b8686116109c05760405162461bcd60e51b8152602060048201526024808201527f426f756e7479426f6172643a20494e56414c49445f524553554c545f444541446044820152634c494e4560e01b606482015260840161048e565b5f8561ffff1611610a135760405162461bcd60e51b815260206004820152601e60248201527f426f756e7479426f6172643a205a45524f5f5041525449434950414e54530000604482015260640161048e565b5f8461ffff1611610a665760405162461bcd60e51b815260206004820152601960248201527f426f756e7479426f6172643a205a45524f5f57494e4e45525300000000000000604482015260640161048e565b8361ffff16835114610ac65760405162461bcd60e51b8152602060048201526024808201527f426f756e7479426f6172643a205052495a45535f57494e4e4552535f4d49534d604482015263082a886960e31b606482015260840161048e565b610acf83611a25565b5f6040518061016001604052806002548152602001600115158152602001336001600160a01b031681526020018a81526020018981526020018881526020018761ffff1681526020018661ffff1681526020018581526020015f6001600160401b03811115610b4057610b40612024565b604051908082528060200260200182016040528015610b69578160200160208202803683370190505b508152602001846001811115610b8157610b8161258a565b9052600280545f908152600360209081526040918290208451815590840151600182018054938601516001600160a01b031661010002610100600160a81b0319921515929092166001600160a81b03199094169390931717909155606083015192935083929091820190610bf590826128f3565b506080820151600382015560a0820151600482015560c082015160058201805460e085015161ffff908116620100000263ffffffff199092169316929092179190911790556101008201518051610c56916006840191602090910190611ec9565b506101208201518051610c73916007840191602090910190611f12565b5061014082015160088201805460ff191660018381811115610c9757610c9761258a565b021790555050335f81815260046020908152604080832060028054825460018101845592865293909420019190915590549051919250907f420df0fd401f26642c4d43817ce1ecd5e2c2b223d6174c721d401c440520b20f90610d07908d908d908d908d908d908d908d906129e4565b60405180910390a360028054905f610d1e83612a44565b91905055506001600254610d3291906127d2565b915050610d3e60018055565b979650505050505050565b5f8281526006602090815260408083206001600160a01b038516845290915290205460ff165b92915050565b6001600160a01b0381165f90815260046020908152604091829020805483518184028101840190945280845260609392830182828015610dd257602002820191905f5260205f20905b815481526020019060010190808311610dbe575b50505050509050919050565b610de66119cf565b610def5f611a8e565b565b5f80805b8351811015610e2d57838181518110610e1057610e1061285e565b602002602001015183610e239190612a5c565b9250600101610df5565b50610e3782611add565b9050915091565b606060055f8381526020019081526020015f20805480602002602001604051908101604052809291908181526020015f905b82821015610f52578382905f5260205f2090600302016040518060600160405290815f82018054610ea090612872565b80601f0160208091040260200160405190810160405280929190818152602001828054610ecc90612872565b8015610f175780601f10610eee57610100808354040283529160200191610f17565b820191905f5260205f20905b815481529060010190602001808311610efa57829003601f168201915b50505091835250506001828101546001600160a01b031660208084019190915260029093015460409092019190915291835292019101610e70565b505050509050919050565b5f828152600360205260409020600181015460ff16610f8e5760405162461bcd60e51b815260040161048e906127e5565b33610fdb5760405162461bcd60e51b815260206004820181905260248201527f426f756e7479426f6172643a20494e56414c49445f5041525449434950414e54604482015260640161048e565b600181015461010090046001600160a01b0316330361100c5760405162461bcd60e51b815260040161048e9061281c565b80600301544211156110705760405162461bcd60e51b815260206004820152602760248201527f426f756e7479426f6172643a205355424d495353494f4e5f444541444c494e4560448201526617d41054d4d15160ca1b606482015260840161048e565b5f83815260066020908152604080832033845290915290205460ff16156110e35760405162461bcd60e51b815260206004820152602160248201527f426f756e7479426f6172643a20414c52454144595f50415254494349504154456044820152601160fa1b606482015260840161048e565b604080516060810182528381523360208083019190915242828401525f8681526005825292832080546001810182559084529220815191928392600390910290910190819061113290826128f3565b50602082810151600183810180546001600160a01b0319166001600160a01b03909316929092179091556040938401516002909301929092555f87815260068252838120338083529252839020805460ff1916909217909155905185917fb0208e8a030021485962b4e500febffb555f44a33144a13a214d2a039a624cbd916111be918791429061229b565b60405180910390a250505050565b5f838152600360205260409020600181015460ff166111fd5760405162461bcd60e51b815260040161048e906127e5565b600181015461010090046001600160a01b0316331461122e5760405162461bcd60e51b815260040161048e906129ad565b600581015462010000900461ffff16821461128b5760405162461bcd60e51b815260206004820152601d60248201527f426f756e7479426f6172643a2057494e4e4552535f4d49534d41544348000000604482015260640161048e565b6007810154156112ad5760405162461bcd60e51b815260040161048e90612a6f565b600581015461ffff168210156112d55760405162461bcd60e51b815260040161048e90612ab4565b80600401544211156113355760405162461bcd60e51b815260206004820152602360248201527f426f756e7479426f6172643a20524553554c545f444541444c494e455f50415360448201526214d15160ea1b606482015260840161048e565b806003015442101561139e5760405162461bcd60e51b815260206004820152602c60248201527f426f756e7479426f6172643a205355424d495353494f4e5f444541444c494e4560448201526b17d393d517d4915050d2115160a21b606482015260840161048e565b6113c083838360010160019054906101000a90046001600160a01b0316611af5565b6113cb848484611cdf565b6113d9838383600601611d9a565b6113e7600782018484611f65565b5060018101805460ff1916905560405184907f5fa006001f7473b386c7bb4db093cb973ce5c895e51c3813bdbd723097d0349e906111be9086908690612af8565b60036020525f9081526040902080546001820154600283018054929360ff8316936101009093046001600160a01b03169290919061146590612872565b80601f016020809104026020016040519081016040528092919081815260200182805461149190612872565b80156114dc5780601f106114b3576101008083540402835291602001916114dc565b820191905f5260205f20905b8154815290600101906020018083116114bf57829003601f168201915b505050506003830154600484015460058501546008909501549394919390925061ffff80831692620100009004169060ff1689565b5f818152600360205260409020600181015460ff166115425760405162461bcd60e51b815260040161048e906127e5565b600181015461010090046001600160a01b031633146115735760405162461bcd60e51b815260040161048e906129ad565b6007810154156115955760405162461bcd60e51b815260040161048e90612a6f565b5f828152600560208190526040909120549082015461ffff16116115cb5760405162461bcd60e51b815260040161048e90612ab4565b4281600401541061162f5760405162461bcd60e51b815260206004820152602860248201527f426f756e7479426f6172643a20524553554c545f444541444c494e455f4e4f5460448201526717d4915050d2115160c21b606482015260840161048e565b60018101805460ff191690555f805b600683015481101561167d5782600601818154811061165f5761165f61285e565b905f5260205f200154826116739190612a5c565b915060010161163e565b508047101561169e5760405162461bcd60e51b815260040161048e90612750565b6040515f90339083908381818185875af1925050503d805f81146116dd576040519150601f19603f3d011682016040523d82523d5f602084013e6116e2565b606091505b50509050806117035760405162461bcd60e51b815260040161048e90612787565b82546040517f92717314c0b0f9d632e1d46a0b8437778ff9daee1db8ec295f2bc0b57c4bcaac905f90a250505050565b61178e60408051610160810182525f8082526020820181905291810182905260608082018190526080820183905260a0820183905260c0820183905260e0820183905261010082018190526101208201529061014082015290565b5f8281526003602090815260409182902082516101608101845281548152600182015460ff81161515938201939093526101009092046001600160a01b0316928201929092526002820180549192916060840191906117ec90612872565b80601f016020809104026020016040519081016040528092919081815260200182805461181890612872565b80156118635780601f1061183a57610100808354040283529160200191611863565b820191905f5260205f20905b81548152906001019060200180831161184657829003601f168201915b505050918352505060038201546020808301919091526004830154604080840191909152600584015461ffff80821660608601526201000090910416608084015260068401805482518185028101850190935280835260a09094019391929091908301828280156118f157602002820191905f5260205f20905b8154815260200190600101908083116118dd575b505050505081526020016007820180548060200260200160405190810160405280929190818152602001828054801561195157602002820191905f5260205f20905b81546001600160a01b03168152600190910190602001808311611933575b5050509183525050600882015460209091019060ff1660018111156119785761197861258a565b60018111156119895761198961258a565b90525092915050565b61199a6119cf565b6001600160a01b0381166119c357604051631e4fbdf760e01b81525f600482015260240161048e565b6119cc81611a8e565b50565b5f546001600160a01b03163314610def5760405163118cdaa760e01b815233600482015260240161048e565b600260015403611a1e57604051633ee5aeb560e01b815260040160405180910390fd5b6002600155565b5f5f611a3083610df1565b9092509050611a3f8183612a5c565b341015611a735734611a518284612a5c565b604051630fde74bd60e01b81526004810192909252602482015260440161048e565b8060075f828254611a849190612a5c565b9091555050505050565b5f80546001600160a01b038381166001600160a01b0319831681178455604051919092169283917f8be0079c531659141344cd1fd0a4f28419497f9722a3daafe3b4186f6b6457e09190a35050565b5f6064611aeb600584612b42565b610d6f9190612b59565b5f5b82811015611cd9575f848483818110611b1257611b1261285e565b9050602002016020810190611b27919061239e565b6001600160a01b031603611b7d5760405162461bcd60e51b815260206004820152601b60248201527f426f756e7479426f6172643a20494e56414c49445f57494e4e45520000000000604482015260640161048e565b816001600160a01b0316848483818110611b9957611b9961285e565b9050602002016020810190611bae919061239e565b6001600160a01b031603611c045760405162461bcd60e51b815260206004820152601f60248201527f426f756e7479426f6172643a2043524541544f525f43414e4e4f545f57494e00604482015260640161048e565b5f611c10826001612a5c565b90505b83811015611cd057848482818110611c2d57611c2d61285e565b9050602002016020810190611c42919061239e565b6001600160a01b0316858584818110611c5d57611c5d61285e565b9050602002016020810190611c72919061239e565b6001600160a01b031603611cc85760405162461bcd60e51b815260206004820152601f60248201527f426f756e7479426f6172643a2057494e4e4552535f4e4f545f554e4951554500604482015260640161048e565b600101611c13565b50600101611af7565b50505050565b5f5b81811015611cd9575f84815260066020526040812090848484818110611d0957611d0961285e565b9050602002016020810190611d1e919061239e565b6001600160a01b0316815260208101919091526040015f205460ff16611d925760405162461bcd60e51b815260206004820152602360248201527f426f756e7479426f6172643a2057494e4e45525f4e4f545f504152544943495060448201526210539560ea1b606482015260840161048e565b600101611ce1565b5f805b83811015611dd557828181548110611db757611db761285e565b905f5260205f20015482611dcb9190612a5c565b9150600101611d9d565b5080471015611df65760405162461bcd60e51b815260040161048e90612750565b5f5b83811015611ec2575f858583818110611e1357611e1361285e565b9050602002016020810190611e28919061239e565b90505f848381548110611e3d57611e3d61285e565b905f5260205f20015490505f826001600160a01b0316826040515f6040518083038185875af1925050503d805f8114611e91576040519150601f19603f3d011682016040523d82523d5f602084013e611e96565b606091505b5050905080611eb75760405162461bcd60e51b815260040161048e90612787565b505050600101611df8565b5050505050565b828054828255905f5260205f20908101928215611f02579160200282015b82811115611f02578251825591602001919060010190611ee7565b50611f0e929150611fb6565b5090565b828054828255905f5260205f20908101928215611f02579160200282015b82811115611f0257825182546001600160a01b0319166001600160a01b03909116178255602090920191600190910190611f30565b828054828255905f5260205f20908101928215611f02579160200282015b82811115611f025781546001600160a01b0319166001600160a01b03843516178255602090920191600190910190611f83565b5b80821115611f0e575f8155600101611fb7565b80356001600160a01b0381168114611fe0575f5ffd5b919050565b5f5f60408385031215611ff6575f5ffd5b611fff83611fca565b946020939093013593505050565b5f6020828403121561201d575f5ffd5b5035919050565b634e487b7160e01b5f52604160045260245ffd5b604051601f8201601f191681016001600160401b038111828210171561206057612060612024565b604052919050565b5f82601f830112612077575f5ffd5b81356001600160401b0381111561209057612090612024565b6120a3601f8201601f1916602001612038565b8181528460208386010111156120b7575f5ffd5b816020850160208301375f918101602001919091529392505050565b5f5f5f606084860312156120e5575f5ffd5b8335925060208401356001600160401b03811115612101575f5ffd5b61210d86828701612068565b93969395505050506040919091013590565b803561ffff81168114611fe0575f5ffd5b5f82601f83011261213f575f5ffd5b81356001600160401b0381111561215857612158612024565b8060051b61216860208201612038565b91825260208185018101929081019086841115612183575f5ffd5b6020860192505b838310156121a557823582526020928301929091019061218a565b9695505050505050565b5f5f5f5f5f5f5f60e0888a0312156121c5575f5ffd5b8735965060208801356001600160401b038111156121e1575f5ffd5b6121ed8a828b01612068565b965050604088013594506060880135935061220a6080890161211f565b925061221860a0890161211f565b915060c08801356001600160401b03811115612232575f5ffd5b61223e8a828b01612130565b91505092959891949750929550565b5f5f6040838503121561225e575f5ffd5b50508035926020909101359150565b5f81518084528060208401602086015e5f602082860101526020601f19601f83011685010191505092915050565b606081525f6122ad606083018661226d565b6001600160a01b039490941660208301525060400152919050565b5f5f5f5f5f5f5f60e0888a0312156122de575f5ffd5b87356001600160401b038111156122f3575f5ffd5b6122ff8a828b01612068565b975050602088013595506040880135945061231c6060890161211f565b935061232a6080890161211f565b925060a08801356001600160401b03811115612344575f5ffd5b6123508a828b01612130565b92505060c088013560028110612364575f5ffd5b8091505092959891949750929550565b5f5f60408385031215612385575f5ffd5b8235915061239560208401611fca565b90509250929050565b5f602082840312156123ae575f5ffd5b6123b782611fca565b9392505050565b5f8151808452602084019350602083015f5b828110156123ee5781518652602095860195909101906001016123d0565b5093949350505050565b602081525f6123b760208301846123be565b5f6020828403121561241a575f5ffd5b81356001600160401b0381111561242f575f5ffd5b61243b84828501612130565b949350505050565b5f602082016020835280845180835260408501915060408160051b8601019250602086015f5b828110156124c357603f19878603018452815180516060875261248f606088018261226d565b6020838101516001600160a01b03168982015260409384015193909801929092525094938401939190910190600101612469565b50929695505050505050565b5f5f604083850312156124e0575f5ffd5b8235915060208301356001600160401b038111156124fc575f5ffd5b61250885828601612068565b9150509250929050565b5f5f5f60408486031215612524575f5ffd5b8335925060208401356001600160401b03811115612540575f5ffd5b8401601f81018613612550575f5ffd5b80356001600160401b03811115612565575f5ffd5b8660208260051b8401011115612579575f5ffd5b939660209190910195509293505050565b634e487b7160e01b5f52602160045260245ffd5b600281106125ba57634e487b7160e01b5f52602160045260245ffd5b9052565b89815288151560208201526001600160a01b0388166040820152610120606082018190525f906125f09083018961226d565b90508660808301528560a083015261ffff851660c083015261ffff841660e083015261262061010083018461259e565b9a9950505050505050505050565b5f8151808452602084019350602083015f5b828110156123ee5781516001600160a01b0316865260209586019590910190600101612640565b60208152815160208201525f6020830151612686604084018215159052565b5060408301516001600160a01b038116606084015250606083015161016060808401526126b761018084018261226d565b9050608084015160a084015260a084015160c084015260c08401516126e260e085018261ffff169052565b5060e084015161ffff811661010085015250610100840151838203601f190161012085015261271182826123be565b915050610120840151601f1984830301610140850152612731828261262e565b91505061014084015161274861016085018261259e565b509392505050565b6020808252601f908201527f426f756e7479426f6172643a20494e53554646494349454e545f46554e445300604082015260600190565b6020808252601c908201527f426f756e7479426f6172643a205452414e534645525f4641494c454400000000604082015260600190565b634e487b7160e01b5f52601160045260245ffd5b81810381811115610d6f57610d6f6127be565b6020808252601d908201527f426f756e7479426f6172643a20424f554e54595f4e4f545f464f554e44000000604082015260600190565b60208082526022908201527f426f756e7479426f6172643a2043524541544f525f43414e4e4f545f5355424d604082015261125560f21b606082015260800190565b634e487b7160e01b5f52603260045260245ffd5b600181811c9082168061288657607f821691505b6020821081036128a457634e487b7160e01b5f52602260045260245ffd5b50919050565b601f8211156128ee57805f5260205f20601f840160051c810160208510156128cf5750805b601f840160051c820191505b81811015611ec2575f81556001016128db565b505050565b81516001600160401b0381111561290c5761290c612024565b6129208161291a8454612872565b846128aa565b6020601f821160018114612952575f831561293b5750848201515b5f19600385901b1c1916600184901b178455611ec2565b5f84815260208120601f198516915b828110156129815787850151825560209485019460019092019101612961565b508482101561299e57868401515f19600387901b60f8161c191681555b50505050600190811b01905550565b60208082526018908201527f426f756e7479426f6172643a204e4f545f43524541544f520000000000000000604082015260600190565b60e081525f6129f660e083018a61226d565b88602084015287604084015261ffff8716606084015261ffff8616608084015282810360a0840152612a2881866123be565b915050612a3860c083018461259e565b98975050505050505050565b5f60018201612a5557612a556127be565b5060010190565b80820180821115610d6f57610d6f6127be565b60208082526025908201527f426f756e7479426f6172643a2057494e4e4552535f414c52454144595f53454c6040820152641150d5115160da1b606082015260800190565b60208082526024908201527f426f756e7479426f6172643a204e4f545f454e4f5547485f5041525449434950604082015263414e545360e01b606082015260800190565b602080825281018290525f8360408301825b85811015612b38576001600160a01b03612b2384611fca565b16825260209283019290910190600101612b0a565b5095945050505050565b8082028115828204841417610d6f57610d6f6127be565b5f82612b7357634e487b7160e01b5f52601260045260245ffd5b50049056fea264697066735822122094da6b8a8060dbae932a8f349963e31ad21cd8cc67ada2911a7098672f22aa8d64736f6c634300081c0033",
        "linkReferences": {}
    },
    "methodIdentifiers": {
        "PLATFORM_FEE_PERCENTAGE()": "15548232",
        "bounties(uint256)": "dc2f8744",
        "bountyIdCounter()": "666980b5",
        "bountySubmissions(uint256,uint256)": "429e2398",
        "calculatePrizesAndFee(uint256[])": "7dda8f80",
        "cancelBounty(uint256)": "e5e5dff1",
        "createBounty(string,uint256,uint256,uint16,uint16,uint256[],uint8)": "439460c5",
        "createSubmission(uint256,string)": "a5e99c4e",
        "editBounty(uint256,string,uint256,uint256,uint16,uint16,uint256[])": "342ec937",
        "editSubmision(uint256,string,uint256)": "2f8feaf2",
        "feeCollected()": "6ca7f95c",
        "getBounty(uint256)": "ee8c4bbf",
        "getBountySubmissions(uint256)": "92af0962",
        "getUserBounties(address)": "6591a185",
        "isParticipant(uint256,address)": "758d9b89",
        "isParticipantOfBounty(uint256,address)": "5af38890",
        "owner()": "8da5cb5b",
        "renounceOwnership()": "715018a6",
        "selectWinners(uint256,address[])": "ccf7c20a",
        "transferOwnership(address)": "f2fde38b",
        "userBounties(address,uint256)": "2b9234b9",
        "withdraw(uint256)": "2e1a7d4d"
    },
    "id": 22
}